:02000002D0002C
:1040000000400D0034540D00000006000C000501B6
:084010000401BD0B00000000DB
:04401800E8510D005E
:10401C0009480A49884208B505D0094A824202D0AB
:10402C00121A01F099F80748074A0021121A01F0F8
:10403C00A1F8014808BD00BFCCE50320A4530D0036
:10404C0034E6032034E60320F0E7032070B5074E76
:10405C00074C00F0E7FCA41BA4080025A54200D1E6
:10406C0070BD56F8043B98470135F7E778530D00BF
:10407C009C530D0000F038B808B500F05BF8BDE8B3
:10408C00084000F091BC00F09FBA00F0A5BA00788F
:10409C00B0FA80F04009704701230370704710B5E7
:1040AC000446006808B100F097FA204610BD0000E5
:1040BC0013B50B4C2178BFF35B8F11F001010BD1C1
:1040CC0020460191FFF7E3FF019928B1054800F064
:1040DC00D7FA2046FFF7E0FF024802B010BD00BF40
:1040EC0038E603203CE6032008B50121052000F04A
:1040FC00B1FFFFF7DDFF0E4A012100F01DFBFFF7BA
:10410C00D7FF012100F0DCFAFFF7D2FF002100F00D
:10411C00EAFAFFF7CDFF0021052200F0BBFA00F010
:10412C0087FDBDE808404FF4165100F075BD00BF87
:10413C0040420F001FB500F07BFD03681B699847D8
:10414C00E0B100F075FD03685B699847C0B2A0F15F
:10415C003003012B8DF80C0013D80021052000F042
:10416C008AFFFFF7A5FF0023009303A9012302AAEE
:10417C0000F014FB0121052000F07DFF05B05DF877
:10418C0004FB3F28FAD10021052000F074FFFFF753
:10419C008FFF0023009302AA012303A900F0FEFA6B
:1041AC000121052000F067FF9DF808302BB900F0C5
:1041BC003FFD4C2100F081FBE0E700F039FD482188
:1041CC00F8E7000038B50A4C0A4BA3600025032021
:1041DC002560A580A57100F06BF90749074A2046B8
:1041EC0000F0A2FF29460120BDE8384000F068B974
:1041FC0044E603200000FFFFAB400D0034E6032033
:10420C0008B5024B1B689B68019308BD680203004C
:10421C0008B5024B1B68DB68019308BD68020300FC
:10422C0008B5024B1B689B68019308BD2C02030068
:10423C0008B5024B1B68DB68019308BD2C02030018
:10424C0008B5024B1B681B69019308BD2C020300C7
:10425C0008B5024B1B685B68019308BD180203008C
:10426C0008B5024B1B685B69019308BD180203007B
:10427C0008B5024B1B685B6C019308BD4802030038
:10428C0008B5024B1B689B6C019308BD48020300E8
:10429C0008B5024B1B685B69019308BD64020300FF
:1042AC0008B5024B1B681B68019308BD3C02030058
:1042BC0008B5024B1B68DB68019308BD3C02030088
:1042CC0008B5024B1B681B69019308BD3C02030037
:1042DC0008B5024B1B685B69019308BD3C020300E7
:1042EC0008B5024B1B689B69019308BD3C02030097
:1042FC0008B5024B1B68DB69019308BD3C02030047
:10430C0008B5024B1B681B6A019308BD3C020300F5
:10431C0008B5024B1B689B6A019308BD3C02030065
:10432C0008B5024B1B681B6A019308BD28020300E9
:10433C0008B5024B1B685B6A019308BD2802030099
:10434C0008B5024B1B689B6A019308BD2802030049
:10435C0008B5024B1B68DB6A019308BD28020300F9
:10436C0008B5024B1B681B6B019308BD28020300A8
:10437C0008B5024B1B685B6B019308BD2802030058
:10438C0008B5024B1B681B6C019308BD2802030087
:10439C0008B5024B1B689B68019308BD30020300F3
:1043AC0008B5024B1B68DB68019308BD30020300A3
:1043BC0008B5024B1B681B69019308BD3002030052
:1043CC0008B5024B1B68DB69019308BD3002030082
:1043DC0008B5024B1B681B6A019308BD3002030031
:1043EC0008B5024B1B685B6A019308BD30020300E1
:1043FC0008B5024B1B689B6A019308BD3002030091
:10440C0008B5024B1B68DB6A019308BD3002030040
:10441C0008B5024B1B689B6B019308BD300203006F
:10442C0008B5024B1B681B6C019308BD30020300DE
:10443C0008B5024B1B685B6C019308BD300203008E
:10444C0008B5024B1B681B68019308BD4C020300A6
:10445C0008B5024B1B685B68019308BD4C02030056
:10446C0008B5024B1B681B69019308BD4C02030085
:10447C0008B5024B1B685B69019308BD4C02030035
:10448C0008B5024B1B689B69019308BD4C020300E5
:10449C0008B5024B1B68DB69019308BD4C02030095
:1044AC0008B5024B1B681B6A019308BD4C02030044
:1044BC0008B5024B1B685B68019308BD2002030022
:1044CC0008B5024B1B68DB6A019308BD2002030090
:1044DC0008B5034B1B68D3F88830019308BD000066
:1044EC002002030008B5034B1B68D3F894300193EA
:1044FC0008BD00002002030008B5024B1B685B6876
:10450C00019308BD4002030008B5024B1B689B6871
:10451C00019308BD4002030008B5024B1B68DB6821
:10452C00019308BD4002030008B5024B1B681B69D0
:10453C00019308BD4002030008B5024B1B685B6980
:10454C00019308BD4002030008B5024B1B689B6930
:10455C00019308BD4002030008B5024B1B68DB69E0
:10456C00019308BD4002030008B5024B1B681B6A8F
:10457C00019308BD4002030008B5024B1B681B6B7E
:10458C00019308BD4002030008B5024B1B685B6B2E
:10459C00019308BD4002030008B5024B1B681B6C5D
:1045AC00019308BD4002030008B5024B1B685B6C0D
:1045BC00019308BD4002030008B5024B1B68DB6B7E
:1045CC00019308BD4402030008B5024B1B681B682D
:1045DC00019308BD1C02030008B5024B1B685B6805
:1045EC00019308BD1C02030008B5024B1B685B6CF1
:1045FC00019308BD1C020300002240681146FFF71E
:10460C00B3BF002240681146FFF7BEBF40680022CE
:10461C00FFF7B2BF4068002281F00101FFF79CBF99
:10462C00002340681A461946FFF78EBF00234068E6
:10463C001A461946FFF780BF002240681146FFF763
:10464C0073BF002240681146FFF75EBF406800222E
:10465C000221FFF761BF002340681A46FFF74CBFE9
:10466C00024B03225A60024A1A60704750E603203C
:10467C0004520D000021FFF7D3BE0021FFF7D8BE76
:10468C0010B5044608462170FFF79AFE00236360BC
:10469C00204610BD13B504460078CDE90021FFF784
:1046AC00E9FFDDE90021034640B92078FFF7A8FEB9
:1046BC00207802B0BDE81040FFF7DFBF02B010BD9C
:1046CC0013B5044600780191FFF7D4FF019940B966
:1046DC002078FFF75DFE207802B0BDE81040FFF7B0
:1046EC00CCBF02B010BD13B5044600780191FFF7A2
:1046FC00C1FF019940B92078FFF752FE207802B033
:10470C00BDE81040FFF7B9BF02B010BD400830B58E
:10471C001860002418688842E5B206D90134082CC8
:10472C0002D040081860F5E70725024B5B5D13705B
:10473C0030BD00BF38520D002DE9F04188B0002388
:10474C000446007802930E461746FFF793FF054682
:10475C0000BB94F800800146142203A800F00AFD67
:10476C000B232A4603A94046ADF80C30FFF738FE60
:10477C0004988DF8075002AB0DF1070207FB06F108
:10478C00FFF7C4FF20789DF80710FFF711FE207883
:10479C00FFF773FF029808B0BDE8F08130B587B021
:1047AC0004460A9D00950078FFF722FE3DB920785B
:1047BC0002A9FFF72DFE9DF81430DB07F7D407B0E4
:1047CC0030BD000010B5094B094C022200201A60C4
:1047DC00084B2060A080A071A360FFF769FE204603
:1047EC00054A0649BDE8104000F09EBC64E6032073
:1047FC0058E603200000FFFF34E60320AB400D0019
:10480C0010B50446006808B1FFF73AFD204610BD0C
:10481C0010B58368044613B103220146984720461D
:10482C0010BD000010B5064C002320462360FFF796
:10483C001FFD2046034A0449BDE8104000F074BC3B
:10484C0068E6032034E603200D480D00F8B5064653
:10485C000D468F180024BD420CD0336815F8011B8F
:10486C009B6830469847031E01DB1C44F3E7002C81
:10487C0008BF1C462046F8BD13B50446084659B17E
:10488C00019100F0A3FC23680199DB6802462046E5
:10489C0002B0BDE81040184702B010BD03689B6819
:1048AC00184738B50D210546FFF7F8FF0A210446D5
:1048BC002846FFF7F3FF204438BD38B50546FFF70F
:1048CC00EDFF04462846FFF7ECFF204438BD30B519
:1048DC008BB000238DF82430012A98BF0A2209AC32
:1048EC000D46B1FBF2F101FB125303F0FF03092B50
:1048FC0094BF30333733DBB2AA4204F8013DEFD911
:10490C002146FFF7B9FF0BB030BD002340681A46B3
:10491C001946FFF711BE0000014B024A1A6070479E
:10492C006CE6032040520D00024B1A68024B1A60D1
:10493C00704700BFCCE5032070E6032010B5044699
:10494C00FFF766FF204610BD0348044A04490023C4
:10495C00836000F0E9BB00BF74E6032034E603205B
:10496C0049490D00014B1860704700BFD0E503208A
:10497C0008B50B4B43B100F05BF903681B69984712
:10498C00002801DDAFF30080064B43B100F0CEF9F7
:10499C0003681B699847002801DDAFF3008008BD50
:1049AC00000000000000000008B5FFF7E1FFFFF772
:1049BC0057FC014B186008BDD4E703200248034A9A
:1049CC000349121A00F0C8BB00F4032004F40320BE
:1049DC00A0530D0007B5002300931A466FF0770122
:1049EC00FFF780FD03B05DF804FB000007B54388BA
:1049FC000A2B08D0502B0BD1094B1B684BB103B0C1
:104A0C005DF804EB1847FFF7E5FF03B05DF804FB16
:104A1C00002300931A466FF07701FFF763FDF4E76C
:104A2C0088E6032038B5124C1248134D0021FFF7CD
:104A3C00DBFD2368AB42114B0CBF012200221A7024
:104A4C0002D0FFF7BBFF2560FFF702FC044600F025
:104A5C0099FB0B4B13B12046AFF3008000210848A3
:104A6C00FFF7AAFDBDE8384006480021FFF730BD2E
:104A7C0000F4032071490D001E1C279A84E60320C4
:104A8C0000000000F9490D00704710B518210446CC
:104A9C0000F04FFB204610BDF0B5037D062B8DB00A
:104AAC000E4600F104074FF0000412D000F1080587
:104ABC0015F8011D0A223046FFF709FFAF420444E6
:104ACC0019D0002CF4D02E213046FFF7E7FE044419
:104ADC00EEE72F236A4639460A208DF80040FFF78F
:104AEC00D7FB684600F072FB33680246DB68694608
:104AFC0030469847044620460DB0F0BD10B5054B26
:104B0C000446112240F8043B002100F033FB204600
:104B1C0010BD00BF68520D000346074A10B543F89C
:104B2C00042B01F1100251F8044B43F8044B914251
:104B3C00F9D10A781A7010BD68520D0010B59DF8A5
:104B4C00084044EA032343EA024242EA0161042397
:104B5C004160037510BD000013B5054B0360CB78A5
:104B6C0000938B784A780978FFF7E8FF02B010BD04
:104B7C0068520D0041747047704708B50021007CE5
:104B8C00FFF77EFC40EAE07008BD08B50121007C0F
:104B9C00FFF776FC40EAE07008BD08B5007CFFF733
:104BAC0067FC20EAE07008BD08B5007CFFF758FCF4
:104BBC0020EAE07008BD13B50446007C0191FFF7B4
:104BCC0057FC0028019901DC607C20B1207CFFF7A8
:104BDC005FFC20EAE07002B010BD007CFFF760BC07
:104BEC0010B51421044600F0A4FA204610BD0000B4
:104BFC0010B54FF47A73044608460021C4E901133A
:104C0C00044B23600123207463741146FFF718FCD6
:104C1C00204610BD7C520D00007C0022FFF718BC12
:104C2C0010B514220446002100F0A4FA204610BD51
:104C3C0010B5104C88B003A8FFF7F2FF2178BFF332
:104C4C005B8F11F0010111D120460191FFF71FFA82
:104C5C00019958B103AA0848FFF7CAFF2046FFF78D
:104C6C001BFA064A0649044800F05EFA024808B0EE
:104C7C0010BD00BF8CE6032090E6032034E6032031
:104C8C00854B0D0070474174704708B5007CFFF7E9
:104C9C003FFB20EAE07008BD08B5007CFFF710FB75
:104CAC0020EAE07008BD08B5007CFFF719FB40EA6C
:104CBC00E07008BD08B5007CFFF70AFB40EAE07025
:104CCC0008BD007CFFF714BB37B5457C04462DB1FD
:104CDC00207C03B0BDE83040FFF7EABA007C0191BC
:104CEC00FFF716FB00280199F2DC284603B030BD13
:104CFC0010B51421044600F01CFA204610BD00002B
:104D0C0010B54FF0000C0446084611464FF47A7269
:104D1C00C4E901C2044A22600122207462741A465A
:104D2C00FFF7BEFA204610BDAC520D0013B50E4C69
:104D3C002178BFF35B8F11F0010112D12046019154
:104D4C00FFF7A5F9019960B1084A094B0948FFF72B
:104D5C00D7FF2046FFF7A0F9074A0849054800F09D
:104D6C00E3F9044802B010BDA4E60320A8E6032032
:104D7C002CE70320B0E7032034E60320914C0D0010
:104D8C007047F8B5064615460C468F18BC4206D03F
:104D9C00336814F8011B9B6830469847F6E72846A1
:104DAC00F8BD007C0022FFF7BBBA007C0021FFF7A6
:104DBC00BFBA007C0021FFF7C3BA007C0021FFF7CB
:104DCC00C7BA007C0021FFF7CBBA10B514210446FA
:104DDC0000F0AFF9204610BD10B54FF47A730446BD
:104DEC0008460021C4E90113034B236020741146CB
:104DFC00FFF7C6FA204610BDDC520D0000224068B9
:104E0C001146FFF791BB002240681146FFF7ACBB7F
:104E1C00002240681146FFF7B7BB40680022FFF73D
:104E2C00ABBB4068002281F00101FFF795BB00236A
:104E3C0040681A461946FFF787BB002240681146A6
:104E4C00FFF762BB406800220221FFF765BB00231D
:104E5C0040681A46FFF750BB024B04225A60024AC4
:104E6C001A607047C4E7032004530D000023406808
:104E7C001A46FFF741BB406800220221FFF74CBBEA
:104E8C00002240681146FFF73FBB002240681146E4
:104E9C00FFF74ABB002340681A461946FFF74CBB84
:104EAC00002340681A461946FFF74EBB40680021A4
:104EBC00FFF772BB40680021FFF776BB4068002209
:104ECC0081F00101FFF748BB40680022FFF754BB9B
:104EDC00002240681146FFF757BB0022406811467C
:104EEC00FFF742BB2DE9F043002495B016460D4662
:104EFC000746FFF703FE214618220EA8009400F087
:104F0C0039F94023CDE90C3421466B460CAA3046C6
:104F1C00FFF77EF9044600284CD10246012168684F
:104F2C00FFF702FB0221804622466868FFF7FCFA75
:104F3C00009E81462146002E3CD000293AD1736850
:104F4C00022B03D00A2B11D0F669F4E7B8F1000F4D
:104F5C000AD0716906A8043107ADFFF7FDFD0FCD2E
:104F6C003C1D0FC42B6823704146EDE7B9F1000FCF
:104F7C0001D14946E8E77469102201A800F0FAF85B
:104F8C0006238DF8143001AD04F1080318341868A9
:104F9C0059682A4603C20833A3421546F7D101A922
:104FAC0006A807ADFFF7B8FD0FCD3C1D0FC42B684D
:104FBC002370DEE70098FFF723F9384615B0BDE8FB
:104FCC00F0830000024B034A1A6000225A607047BB
:104FDC00CCE7032040530D00232813B502D9002041
:104FEC0002B010BDA0F10B03022B1AD8174C21787C
:104FFC00BFF35B8F11F001010BD120460191FFF73C
:10500C0046F8019928B11248FFF73AFB2046FFF702
:10501C0043F80F4B1878FFF7DBF90028DFD101209C
:10502C00DEE7012809D800F057F80021007CFFF7D3
:10503C009FF980F00100C0B2D2E709380128EED800
:10504C00FFF774FE007CFFF75BF9F2E738E603200C
:10505C003CE60320232838B504460D460AD8FF2920
:10506C0008D0FFF7B9FF28B129462046BDE83840E3
:10507C00FFF7D6B838BD38B504460D46FFF7D8F85B
:10508C00FF2810D0062804D84D2323FA00F0C307BC
:10509C0009D42046FFF7A0FF28B129462046BDE8D9
:1050AC003840FFF7CDB838BD38B5002320254380F4
:1050BC00142304460380856005610649284600F0E8
:1050CC003AF804496060284600F035F8E060204664
:1050DC0038BD00BF74530D0030B50F4D2978BFF3A8
:1050EC005B8F11F0010487B013D12846FEF7CFFF78
:1050FC0078B101A8FFF7D8FF01AA21460748FFF7AE
:10510C006BFE2846FEF7C8FF054A0649034800F027
:10511C000BF8024807B030BDD8E70320DCE70320CA
:10512C0034E603208D4D0D000B460146184600F069
:10513C0005B8FEF7AABFFEF7A6BF000010B5054CD8
:10514C0013462CB10A4601460220AFF3008010BD75
:10515C002046FCE7000000000A44914200F1FF33B6
:10516C0000D1704710B511F8014B03F8014F914273
:10517C00F9D110BD02440346934200D1704703F8A5
:10518C00011BF9E738B50D4B1D68AB6B04467BB9B9
:10519C001820FFF719FA0A4A0A4BA863C0E9002342
:1051AC00094B83600B23838101220023C0E9042374
:1051BC00AB6B00221C615A6138BD00BFD0E50320E7
:1051CC000E33CDAB34126DE6ECDE0500034613F85E
:1051DC00012B002AFBD1181A013870471D400D0015
:1051EC0059400D0081400D0085400D00000000006D
:1051FC00000000000000000063460D0059460D0041
:10520C004F460D0045460D0039460D002D460D004C
:10521C00B94E0D00C14E0D0021460D0019460D0072
:10522C000F460D0005460D00F14E0D00000810183C
:10523C00202830386170700025592D256D2D25647E
:10524C005425483A254D3A2553257A0061736374E9
:10525C00696D65000000000000000000A54A0D000B
:10526C00954A0D00974A0D00000000000000000058
:10527C00854B0D00ED4B0D00C34B0D0059480D0037
:10528C00B54B0D00874B0D00974B0D00E74B0D00F8
:10529C00A74B0D00814B0D0000000000000000002A
:1052AC00914C0D00FD4C0D00D54C0D0059480D00D6
:1052BC00A54C0D00C14C0D00B34C0D00CF4C0D0096
:1052CC00934C0D00974C0D000000000000000000F6
:1052DC008D4D0D00D74D0D00AF4D0D008F4D0D00B8
:1052EC00B74D0D00BF4D0D00C74D0D00CF4D0D003E
:1052FC0000000000000000005B4E0D00514E0D0040
:10530C00474E0D00094E0D0017490D003B4E0D0088
:10531C00B94E0D00C14E0D002F4E0D00274E0D0045
:10532C001D4E0D00134E0D00F14E0D00000000003F
:10533C0000000000794E0D00834E0D008D4E0D00C7
:10534C00974E0D00A14E0D00AD4E0D00B94E0D0047
:10535C00C14E0D00C94E0D00D54E0D00DD4E0D0099
:10536C00E74E0D00F14E0D0000000000D1410D0084
:10537C006D460D00D1470D0031480D0025490D003B
:10538C0035490D0055490D00654E0D00D14F0D00EE
:04539C00000000000D
:0453A0000000000009
:1053A40058520D00D4E50320000000000000000066
:1053B40000000000000000000000000000000000E9
:1053C40000000000000000000000000000000000D9
:1053D40000000000000000000000000000000000C9
:1053E40000000000000000000000000000000000B9
:1053F40000000000000000000000000000000000A9
:085404000000000000000000A0
:10540C00FFFFFFFF00000102030405060708090A5D
:10541C000B0C0D0E0F101112131415161718191A58
:08542C001B1C1D1E1F2028009F
:045434007856341260
:04000003D000401CCD
:00000001FF
